{"abi":[{"type":"constructor","inputs":[{"name":"_owner","type":"address","internalType":"address"}],"stateMutability":"nonpayable"},{"type":"function","name":"onFlashLoan","inputs":[{"name":"initiator","type":"address","internalType":"address"},{"name":"baseTokenAddress","type":"address","internalType":"address"},{"name":"amount","type":"uint256","internalType":"uint256"},{"name":"fee","type":"uint256","internalType":"uint256"},{"name":"data","type":"bytes","internalType":"bytes"}],"outputs":[{"name":"","type":"bytes32","internalType":"bytes32"}],"stateMutability":"nonpayable"},{"type":"function","name":"owner","inputs":[],"outputs":[{"name":"","type":"address","internalType":"address"}],"stateMutability":"view"},{"type":"function","name":"updateOwner","inputs":[{"name":"newOwner","type":"address","internalType":"address"}],"outputs":[],"stateMutability":"nonpayable"}],"bytecode":{"object":"0x6080604052600019600055348015601557600080fd5b50604051610a31380380610a318339810160408190526032916056565b600180546001600160a01b0319166001600160a01b03929092169190911790556084565b600060208284031215606757600080fd5b81516001600160a01b0381168114607d57600080fd5b9392505050565b61099e806100936000396000f3fe608060405234801561001057600080fd5b50600436106100415760003560e01c806323e30c8b14610046578063880cdc311461006c5780638da5cb5b14610081575b600080fd5b61005961005436600461067f565b6100ac565b6040519081526020015b60405180910390f35b61007f61007a36600461072c565b6105d2565b005b600154610094906001600160a01b031681565b6040516001600160a01b039091168152602001610063565b60008080806100bd85870187610750565b9194509250905082828a83600060026040519080825280602002602001820160405280156100f5578160200160208202803683370190505b5090508d8160008151811061010c5761010c6107b1565b60200260200101906001600160a01b031690816001600160a01b0316815250508581600181518110610140576101406107b1565b6001600160a01b03928316602091820292909201015260005460405163095ea7b360e01b81528a8316600482015260248101919091529084169063095ea7b3906044016020604051808303816000875af11580156101a2573d6000803e3d6000fd5b505050506040513d601f19601f820116820180604052508101906101c691906107c7565b50846001600160a01b03166338ed17398e60008430426040518663ffffffff1660e01b81526004016101fc9594939291906107e9565b6000604051808303816000875af115801561021b573d6000803e3d6000fd5b505050506040513d6000823e601f3d908101601f19168201604052610243919081019061085b565b506040805160028082526060820183526000926020830190803683370190505090508681600081518110610279576102796107b1565b60200260200101906001600160a01b031690816001600160a01b0316815250508e816001815181106102ad576102ad6107b1565b6001600160a01b03928316602091820292909201015260005460405163095ea7b360e01b81528a8316600482015260248101919091529084169063095ea7b3906044016020604051808303816000875af115801561030f573d6000803e3d6000fd5b505050506040513d601f19601f8201168201806040525081019061033391906107c7565b506040516370a0823160e01b81523060048201526001600160a01b03808716916338ed1739918616906370a08231906024016020604051808303816000875af1158015610384573d6000803e3d6000fd5b505050506040513d601f19601f820116820180604052508101906103a89190610928565b60008430426040518663ffffffff1660e01b81526004016103cd9594939291906107e9565b6000604051808303816000875af11580156103ec573d6000803e3d6000fd5b505050506040513d6000823e601f3d908101601f19168201604052610414919081019061085b565b5060008d8f866001600160a01b03166370a08231306040518263ffffffff1660e01b815260040161045491906001600160a01b0391909116815260200190565b6020604051808303816000875af1158015610473573d6000803e3d6000fd5b505050506040513d601f19601f820116820180604052508101906104979190610928565b6104a19190610941565b6104ab9190610941565b60015460405163a9059cbb60e01b81526001600160a01b0391821660048201526024810183905291925086169063a9059cbb906044016020604051808303816000875af1158015610500573d6000803e3d6000fd5b505050506040513d601f19601f8201168201806040525081019061052491906107c7565b5060005460405163095ea7b360e01b815233600482015260248101919091526001600160a01b0386169063095ea7b3906044016020604051808303816000875af1158015610576573d6000803e3d6000fd5b505050506040513d601f19601f8201168201806040525081019061059a91906107c7565b507f439148f0bbc682ca079e46d6e2c2f0c1e3b820f1a291b069d8882abf8cf18dd99a50505050505050505050509695505050505050565b6001546001600160a01b031633146106455760405162461bcd60e51b815260206004820152602c60248201527f4f6e6c792063757272656e74206f776e65722063616e2065786563757465207460448201526b3434b990333ab731ba34b7b760a11b606482015260840160405180910390fd5b600180546001600160a01b0319166001600160a01b0392909216919091179055565b6001600160a01b038116811461067c57600080fd5b50565b60008060008060008060a0878903121561069857600080fd5b86356106a381610667565b955060208701356106b381610667565b94506040870135935060608701359250608087013567ffffffffffffffff8111156106dd57600080fd5b8701601f810189136106ee57600080fd5b803567ffffffffffffffff81111561070557600080fd5b89602082840101111561071757600080fd5b60208201935080925050509295509295509295565b60006020828403121561073e57600080fd5b813561074981610667565b9392505050565b60008060006060848603121561076557600080fd5b833561077081610667565b9250602084013561078081610667565b9150604084013561079081610667565b809150509250925092565b634e487b7160e01b600052604160045260246000fd5b634e487b7160e01b600052603260045260246000fd5b6000602082840312156107d957600080fd5b8151801515811461074957600080fd5b600060a0820187835286602084015260a0604084015280865180835260c08501915060208801925060005b8181101561083b5783516001600160a01b0316835260209384019390920191600101610814565b50506001600160a01b039590951660608401525050608001529392505050565b60006020828403121561086d57600080fd5b815167ffffffffffffffff81111561088457600080fd5b8201601f8101841361089557600080fd5b805167ffffffffffffffff8111156108af576108af61079b565b8060051b604051601f19603f830116810181811067ffffffffffffffff821117156108dc576108dc61079b565b6040529182526020818401810192908101878411156108fa57600080fd5b6020850194505b8385101561091d57845180825260209586019590935001610901565b509695505050505050565b60006020828403121561093a57600080fd5b5051919050565b8181038181111561096257634e487b7160e01b600052601160045260246000fd5b9291505056fea26469706673582212201f087ac6638047cb379e7ce20b5958e79358633b729ebda030e95f1546ab205364736f6c634300081a0033","linkReferences":{}},"methodIdentifiers":{"onFlashLoan(address,address,uint256,uint256,bytes)":"23e30c8b","owner()":"8da5cb5b","updateOwner(address)":"880cdc31"},"id":0}